:1000000000800020BD010000ED1D0000B91D0000B2
:10001000B91D0000B91D0000B91D0000B91D000088
:10002000B91D0000B91D0000B91D0000ED1D000044
:10003000ED1D0000B91D0000ED1D0000A91D000010
:10004000ED1D0000ED1D0000ED1D0000ED1D000088
:10005000ED1D0000ED1D0000ED1D0000ED1D000078
:10006000ED1D0000ED1D0000ED1D0000ED1D000068
:10007000ED1D0000ED1D0000ED1D0000ED1D000058
:10008000ED1D0000ED1D0000ED1D0000ED1D000048
:10009000ED1D0000ED1D0000ED1D0000ED1D000038
:1000A000B5540000ED1D0000ED1D0000ED1D000029
:1000B000ED1D0000ED1D0000ED1D0000ED1D000018
:1000C000ED1D0000ED1D0000ED1D0000ED1D000008
:1000D000ED1D0000ED1D0000ED1D0000ED1D0000F8
:1000E000ED1D0000ED1D0000ED1D0000ED1D0000E8
:1000F000ED1D0000A5360000ED1D0000613D000073
:10010000ED1D000061420000ED1D0000ED1D00002E
:10011000ED1D0000ED1D0000ED1D0000ED1D0000B7
:10012000ED1D0000ED1D0000ED1D0000ED1D0000A7
:10013000ED1D0000ED1D0000ED1D0000ED1D000097
:10014000ED1D0000ED1D0000ED1D0000ED1D000087
:10015000ED1D0000ED1D0000ED1D0000ED1D000077
:10016000ED1D00005D230000ED1D0000ED1D0000F1
:10017000ED1D0000ED1D0000ED1D0000ED1D000057
:10018000ED1D0000ED1D0000ED1D0000ED1D000047
:10019000ED1D0000ED1D0000ED1D0000ED1D000037
:1001A000ED1D0000ED1D0000ED1D0000ED1D000027
:1001B000ED1D0000ED1D0000ED1D0000564B4CF242
:1001C000205210B51A804DF628121A8000BF00BFC9
:1001D00001F010FE514B4FF010621A60504A9A60C5
:1001E000504ADA60A3F53043203B1A6812F480725B
:1001F00004D14D490A604FF4A8521A604B4B1A784B
:10020000110703D51A7842F008021A70484B2A22C7
:100210001A700023474A48499818884204D247492F
:10022000595899500433F5E7454A464B9A424FF0E6
:10023000000302D242F8043BF7E74349434A5958C6
:1002400099500433B3F5DE7FF7D1414B802103F899
:10025000011B40498B42F9D13F4B1A603F4B8A2228
:100260001A70A3F5805324225A70A0221A709A792A
:100270009207FCD59A79D406FCD4394B9A7902F0CE
:100280000C02082AF9D105221A7143225A719A796F
:100290009006FCD5324B9A795106FBD5314A4FF086
:1002A000817111600521516020221A702C4B9B79BD
:1002B00003F00C030C2BF9D12B4B2C4A1A602C4B5E
:1002C0002C4A1A6000225A60072243F8042C2A4A5A
:1002D000C3F80C2D62B601F027FF134B1B68DA0739
:1002E00005D5264801F02AFE254B264A1A60264BE2
:1002F0001B785B0609D5224C224A2368934204D11D
:100300001E4801F01BFE0023236005F0C7FE01F02C
:1003100077FD01F085FCFEE70E20054030800440AB
:10032000823F04000100002B14D0034002D007409C
:1003300000E007406087FF1F3C8AFF1FC487000062
:100340003C8AFF1F088FFF1F000000000082FF1F74
:1003500000E400E05FE400E008ED00E0005006404B
:10036000004006404480044004800440C010050062
:1003700014E000E03F19010000002020B983E35899
:100380001CE00340A5C3945A00F00740FFFFFFFFA5
:10039000FFFFFFFFFFFFFFFFFFFFFFFFFFFFFFFF6D
:1003A000FFFFFFFFFFFFFFFFFFFFFFFFFFFFFFFF5D
:1003B000FFFFFFFFFFFFFFFFFFFFFFFFFFFFFFFF4D
:1003C000FFFFFFFFFFFFFFFFFFFFFFFFFFFFFFFF3D
:1003D000FFFFFFFFFFFFFFFFFFFFFFFFFFFFFFFF2D
:1003E000FFFFFFFFFFFFFFFFFFFFFFFFFFFFFFFF1D
:1003F000FFFFFFFFFFFFFFFFFFFFFFFFFFFFFFFF0D
:10040000FFFFFFFFFFFFFFFFFFFFFFFFDEF9FFFF23
:1004100010B5054C237833B9044B13B10448AFF33E
:1004200000800123237010BD3C8AFF1F00000000E4
:10043000C487000008B5064B1BB106480649AFF358
:1004400000800648036813B1054B03B1984708BD07
:1004500000000000C4870000408AFF1F3C8AFF1F85
:1004600000000000014B01221A707047AE8AFF1F86
:10047000022A10B5044606D0032A09D0012A0AD15F
:100480000B68036007E0012001F0EAFC206002E055
:10049000006801F0E7FC002010BD38B504460846AE
:1004A0000D4605F00DFF236802465B68204629468D
:1004B000984738BD08B5FFF7F0FF08BD08B5FFF74E
:1004C000ECFF08BD01F0F0BA38B50446FFF7E5FFD0
:1004D0000546204601F08CFA284438BD38B504465C
:1004E000FFF7DBFF0546204601F082FA284438BDBD
:1004F00038B50A220023044601F09EFA054620463C
:1005000001F076FA284438BD70B50D4C16461D46EC
:100510002046FFF7EDFF31462046FFF7E9FF297837
:100520002046FFF7E5FF0D2001F038FDD0F1010175
:1005300038BF00210D20BDE8704001F00FBD00BFA5
:10054000A48CFF1F38B5044601F0AEFA05462046DC
:1005500001F04EFA284438BD82B02DE9F74F044629
:100560000CA880E80C00D1F800B00C9BD1F80490E6
:100570008F68CD6801931946584604F091FC0D9E92
:10058000DDF83880DDF83CA003463146484600934C
:1005900004F086FC009B0146184604F077FB4146B8
:1005A00003463846009304F07BFC009B0146184646
:1005B00004F06CFB514603462846009304F070FC9F
:1005C000009B0146184604F061FB31462060584606
:1005D00004F066FC019903464846009304F060FC71
:1005E000009B0146184604F053FB5146034638462B
:1005F000009304F055FC009B0146184604F048FBAC
:10060000414603462846009304F04AFC009B0146FD
:10061000184604F03BFB41466060584604F040FC3D
:10062000514603464846009304F03AFC009B0146BD
:10063000184604F02BFB019903463846009304F05A
:100640002FFC009B0146184604F022FB314603466E
:100650002846009304F024FC009B0146184604F051
:1006600017FB5146A060584604F01AFC41468246EA
:10067000484604F015FC0146504604F009FB31469B
:100680008046384604F00CFC0146404604F0FEFA71
:1006900001990646284604F003FC0146304604F062
:1006A000F7FAE060204603B0BDE8F04F02B07047B3
:1006B000F0B506468FB0B0F900000F4604F09CFB81
:1006C0000546B6F9020004F097FB0446B6F90400AB
:1006D00004F092FB002306930894099008AB93E87A
:1006E00003008DE8030006AC079502AD94E80C000A
:1006F00028463946FFF730FF95E80F0084E80F00E1
:100700007B6803F10040BB680B9003F10041FB687C
:100710000C9103F100423B680A930D920EAB13E972
:1007200003008DE803000AAB284621460CCBFFF7F7
:1007300013FF95E80F0084E80F00079804F000FD10
:100740003080089804F0FCFC7080099804F0F8FCF4
:10075000B0800FB0F0BDFFFF2DE9F047B449B54EB2
:10076000A8B00446B448FFF7B9FE204605F0C8F922
:100770001E2001F0C3FCB149AF48FFF7AFFE204691
:10078000002105F0C3F9AE49AB48FFF7A7FEAD491C
:10079000A948FFF793FE00210B460A22A64801F064
:1007A0004BF9A949A448FFF799FE012213462046B8
:1007B000102105F0A2FAA5499F48FFF78FFE2046B9
:1007C000062105F0AAFAA2499B48FFF787FE2046BA
:1007D00005F0A8FA9F4905469748FFF76FFE29469E
:1007E00010220023944801F027F9934801F000F902
:1007F00099499148FFF772FE00210A460B462046B0
:1008000005F07BFA95498C48FFF768FE204605F015
:10081000DFF9934905468848FFF750FE914B92490E
:100820008548002D18BF1946FFF758FE8F498248AA
:10083000FFF754FE204605F007FA5FFA80F92046DC
:1008400005F01EFA5FFA80F8204605F035FA4FFAF7
:1008500089F9C7B286497848FFF730FE494676489D
:10086000FFF770FE4FFA88F882497348FFF726FEBB
:1008700041467148FFF766FE7FB27F496E48FFF739
:100880001DFEE51D39466C48FFF75CFE3388A079F4
:100890002A466A2105F052F878496748FFF71EFE9C
:1008A00032223721A07904F0A5FF75496248FFF78D
:1008B00015FE00220A210E2004F09CFF71495E48BB
:1008C000FFF70CFE0F220A210E2004F093FF6E4961
:1008D0005948FFF703FE3388009303222B4610216B
:1008E0000E2004F0C5FF94F807A068495248267A04
:1008F000657AFFF7E3FD4FFA8AF14F48FFF7E2FD13
:1009000063494D48FFF7DAFD71B24B48FFF7DAFD56
:100910005F494948FFF7D2FD69B24748FFF712FE29
:1009200057494548FFF7DAFD00220A210E2004F05E
:1009300061FF58494048FFF7C1FD40F2AA713E48A7
:10094000FFF7C0FD002554493B480126FFF7C6FDCF
:100950008DE860002046514940F2AA722B4605F00E
:10096000D9FA002800F010854D493348FFF7B6FD4D
:100970004C493148FFF7B2FD4B492F48FFF79EFD28
:10098000E8212D48FFF79EFD48492B48FFF7A6FDBB
:1009900020464749E82205F036FB002800F0EE84A7
:1009A00044492548FFF79AFD43492348FFF796FD40
:1009B0002046122105F08AF840491F48FFF78EFDB6
:1009C0002046042105F03DF83D491B48FFF786FD10
:1009D0002046032105F0A0F83A491748FFF77EFDAD
:1009E0002046032105F03DF837491348FFF776FD0F
:1009F0002046314605F02AF834490F48FFF76EFDCE
:100A00002046032105F038F831490B48FFF766FD11
:100A10002046032105F0FAFA2046294605F0FBFAA4
:100A20002C490548FFF75AFD2046294654E000BFEF
:100A30002F6F0000D689FF1FA48CFF1F466F000098
:100A40005E6F0000746F0000826F00009C6F0000FA
:100A5000B76F0000D56F0000EF6F00001770000047
:100A600036700000286F0000266F00004370000001
:100A700061700000727000008370000094700000CC
:100A8000D4700000FF7000002B7100005B7100004B
:100A90006F710000737100009A710000427C0000C9
:100AA000A2710000CA710000F27100002272000001
:100AB000B26D000038720000697200009A72000086
:100AC000BA720000DC720000FE7200002E7300009B
:100AD0005E7300009473000005F08CF8B649B748C7
:100AE000FFF7FCFC2046494605F08AF820464146BF
:100AF00005F092F82046394605F09AF8B049AF481B
:100B0000FFF7ECFC2046294605F0B4F820462946BC
:100B100005F0CCF82046294605F0E4F8A748A94995
:100B2000FFF7DCFCA84EEBB228AA1A44715D02F86C
:100B3000901C0135ADB2EAB20133032ADBB2F1D920
:100B40009DF81220911C9942ECDA9DF81110009149
:100B5000002701219DF81030019102970DF113013A
:100B6000204605F035F995489849FFF7B7FC3B4614
:100B700028AA1A440133DBB2715D02F8901C0135DA
:100B8000032BADB2F4D99DF81220911C9942EFDAF3
:100B90009DF811100091002701219DF8103001915E
:100BA00002970DF11301204605F012F98849834898
:100BB000FFF794FC204604F09DFF86497F48FFF72D
:100BC0008DFC204604F0C6FF834980467B48FFF732
:100BD00075FC5FFA88F17948FFF78AFC77487F490E
:100BE000FFF77CFC3B4628AA1A440133DBB2715D57
:100BF00002F8901C0135032BADB2F4D99DF81220F8
:100C0000911C9942EFDA9DF8111000910027012103
:100C10009DF81030019102970DF11301204605F067
:100C2000D7F866486E49FFF759FC3B4628AA1A4494
:100C30000133DBB2715D02F8901C0135032BADB2BC
:100C4000F4D99DF81220911C9942EFDA00274FF059
:100C500001089DF811109DF810300091CDF8048026
:100C60000DF113010297204605F0B2F85D49534893
:100C7000FFF734FC3A466C21682004F0BBFD5A496A
:100C80004E48FFF72BFC3A461C21682004F0B2FDC9
:100C900056494A48FFF722FC2046022104F002FF91
:100CA00053494648FFF71AFC20469C2104F004FFF4
:100CB00050494248FFF712FC2046502104F0F7FE4D
:100CC0004D493E48FFF70AFC2046394604F0F9FE3C
:100CD0004A493A48FFF702FC42460A210E2004F036
:100CE00089FD47493548FFF7F9FB25218E22682009
:100CF00004F080FD26214246682004F07BFDDA22C4
:100D00002721682004F076FD3E492C48FFF7E6FBDA
:100D10002B210E22682004F06DFD2C210A22682070
:100D200004F068FD2D218122682004F063FD424615
:100D30006521682004F05EFD33492048FFF7CEFBB3
:100D400034211822682004F055FD0522672168200F
:100D500004F050FD2D491948FFF7C0FB3A463721F2
:100D6000682004F047FD2A491448FFF7B7FB20220A
:100D70006A21682004F03EFD15491048FFF7AEFBDC
:100D800024226A21682004F035FD22490B48FFF730
:100D9000A5FB20226A21682004F02CFD1E4907488B
:100DA000FFF79CFB6A216820E82204F023FD03483A
:100DB0001A49FFF793FB33E0AE730000A48CFF1FCA
:100DC000DF7300000A7400009A6E00004174000096
:100DD000787400008A740000A0740000B4740000ED
:100DE000EB74000022750000417500007075000072
:100DF0009B750000CD750000F87500002776000097
:100E0000547600007676000099760000BA760000ED
:100E1000EB76000007770000407700006377000062
:100E200028AB3B440137FFB2725D03F8902C0135CB
:100E3000032FADB2F4D99DF81220931CBB42EFDA18
:100E40009DF811100091002701219DF810300191AB
:100E500002970DF11301204604F0BAFFAB48AC49EC
:100E6000FFF73CFB3B4628AA1A440133DBB2715D15
:100E700002F8901C0135032BADB2F4D99DF8122075
:100E8000911C9942EFDA9DF8111000910027012181
:100E90009DF81030019102970DF11301204604F0E6
:100EA00097FF9A489B49FFF719FB3B4628AA1A442B
:100EB0000133DBB2715D02F8901C0135032BADB23A
:100EC000F4D99DF81220911C9942EFDA9DF8111087
:100ED0000091002701219DF81030019102970DF13A
:100EE0001301204604F074FF88488B49FFF7F6FA97
:100EF0003B4628AA1A440133DBB2715D02F8901C0C
:100F00000135032BADB2F4D99DF81220911C994202
:100F1000EFDA9DF811100091002701219DF81030A3
:100F2000019102970DF11301204604F051FF77481B
:100F30007A49FFF7D3FA3B4628AA1A440133DBB2B9
:100F4000715D02F8901C0135032BADB2F4D99DF808
:100F50001220911C9942EFDA9DF8111000910027A0
:100F600001219DF81030019102970DF113012046E7
:100F700004F02EFF65486A49FFF7B0FA3B4628AAFD
:100F80001A440133DBB2715D02F8901C0135032B6A
:100F9000ADB2F4D99DF81220911C9942EFDA9DF878
:100FA00011100091002701219DF810300191029746
:100FB0000DF11301204604F00BFF54485949FFF787
:100FC0008DFA3B4628AA1A440133DBB2715D02F860
:100FD000901C0135032BADB2F4D99DF81220911C61
:100FE0009942EFDA9DF811100091002601219DF839
:100FF0001030019102960DF11301204604F0E8FE35
:1010000042484949FFF76AFA334628AA1A44474E2C
:101010000133DBB2715D02F8901C0135032BADB2D8
:10102000F3D99DF81220911C9942EEDA9DF8111027
:101030009DF81030009120460DF1130104F080FE60
:1010400032483B49FFF73AFA002728AB3B441022CD
:1010500013F88D1C2D48002300F0EEFC01372B48BF
:101060003449FFF727FA042FEFD133492748FFF718
:101070002BFA26483149FFF731FA002328AA1A44EF
:101080000133DBB2715D02F8901C0135032BADB268
:10109000F4D99DF81220911C9942EFDA9DF81110B5
:1010A0000091002701219DF81030019102970DF168
:1010B0001301204604F08CFE14482149FFF70EFA74
:1010C0003B4628AA1A440133DBB2715D02F8901C3A
:1010D0000135032BADB2F4D99DF81220911C994231
:1010E000EFDA9DF811100091002701219DF81030D2
:1010F000019102970DF11301204604F069FE0348A7
:101100001049FFF7EBF93B461EE000BFA48CFF1F20
:101110009A770000D1770000087800003F7800003F
:1011200076780000AE780000E67800009A6E000045
:101130001E7900006C870000327C00002B790000D3
:10114000637900009B79000028AA1A440133DBB2BE
:10115000715D02F8901C0135032BADB2F4D99DF8F6
:101160001220911C9942EFDA9DF81110009100278E
:1011700001219DF81030019102970DF113012046D5
:1011800004F026FE84488549FFF7A8F93B4628AAC3
:101190001A440133DBB2715D02F8901C0135032B58
:1011A000ADB2F4D99DF81220911C9942EFDA9DF866
:1011B00011100091002701219DF810300191029734
:1011C0000DF11301204604F003FE73487449FFF744
:1011D00085F93B4628AA1A440133DBB2715D02F857
:1011E000901C0135032BADB2F4D99DF81220911C4F
:1011F0009942EFDA9DF8111000910121019100212F
:1012000002919DF810300DF11301204604F0E0FD2D
:1012100061486449FFF762F9204604F09BFCC7B2BD
:101220002D2FF9D960495C48FFF758F9802FB4BFDA
:101230003A468022204608A904F0A0FC5B495648A3
:10124000FFF74CF9204604F047FC53485849FFF794
:1012500045F9002328AA1A440133DBB2715D02F874
:10126000901C0135032BADB2F4D99DF81220911CCE
:101270009942EFDA9DF811100091012101910021AE
:1012800002919DF810300DF11301204604F0A0FDED
:1012900041484849FFF722F9204604F05BFCC7B2F9
:1012A0002F2FF9D940493C48FFF718F9802FB4BFD8
:1012B0003A468022204608A904F060FC3B493648A3
:1012C000FFF70CF9204604F007FC33483949FFF7D3
:1012D00005F9204604F03EFCC7B22F2FF9D9324958
:1012E0002D48FFF7FBF8802FB4BF3A4680222046F6
:1012F00008A904F043FC2D492748FFF7EFF82046E2
:1013000004F0EAFB24482C49FFF7E8F8002328AA58
:101310001A440133DBB2715D02F8901C0135032BD6
:10132000ADB2F4D99DF81220911C9942EFDA9DF8E4
:1013300011100091002601219DF8103001910296B4
:101340000DF11301204604F043FD1C491248FFF73C
:10135000C5F82046314604F0CAFC19490E48FFF78B
:10136000BDF83023A38017490B48FFF7B7F8204694
:1013700004F0C0FB204604F0AFFB09E00648124928
:10138000FFF7ACF8022004E003481049FFF7A6F885
:10139000304628B0BDE8F087A48CFF1FD379000049
:1013A0000B7A0000437A0000637A0000737A000031
:1013B0008F7A0000C77A0000E77A00001F7B0000E8
:1013C000477B0000827B0000BA7B0000E87B0000C6
:1013D00002B9026892F8220092F8233003EB00234E
:1013E0000B8092F8260092F8273003EB00234B8005
:1013F00092F82A0092F82B3003EB00238B80002018
:10140000704702B902681078537803EB00230B8011
:101410001079537903EB00234B80107A537A03EB56
:1014200000238B80107B537B03EB0023CB800020B9
:10143000704737B50C466946FFF7E3FF054618BB12
:10144000BDF9000003F0D8FC4FF0625103F028FD15
:101450002060BDF9020003F0CFFC4FF0625103F0B1
:101460001FFD6060BDF9040003F0C6FC4FF062513F
:1014700003F016FDA060BDF9060003F0BDFC4FF0BF
:10148000625103F00DFDE060284603B030BDF8B5B1
:10149000B2F9000016461D460C4603F0ADFC4FF0B5
:1014A0008B410746286803F0FBFC0146384603F0F1
:1014B000EDFB03F045FE2080B6F9020003F09CFC32
:1014C0004FF08B410746686803F0EAFC0146384656
:1014D00003F0DCFB03F034FE6080B6F9040003F097
:1014E0008BFC4FF08B410646A86803F0D9FC0146FF
:1014F000304603F0CBFB03F023FEA0800020F8BDB4
:1015000008B51068086092888A8008461946FFF777
:10151000CFF8002008BD2DE9F843D2F80480D76841
:10152000166895680C464046394603F0B9FC2946D2
:101530008146304603F0B4FC0146484603F0A6FB62
:10154000014603F0A5FB41462060304603F0A8FCAD
:1015500039468146284603F0A3FC0146484603F07D
:1015600097FB014603F094FB31466060304603F080
:1015700097FC41460646404603F092FC0146304641
:1015800003F084FB29460646284603F089FC014601
:10159000304603F07BFB39460546384603F080FCB5
:1015A0000146284603F074FBA0600020BDE8F883E4
:1015B000836810B5044613B10146032298472046BC
:1015C00010BDFFFF70B50D2001218AB000F0F4FCC2
:1015D0000D20012100F0C2FC434B1B78002B7FD073
:1015E000424B1B789B077BD0414B1A68414B1B68D1
:1015F000D31A182B74D94049404803F015FE002631
:101600000120049600F02CFC06AC3D4A3D4B0290B4
:1016100005920992204602A9022204930893FEF73C
:1016200027FF394B94E8030003F108028DE803001B
:1016300092E8030084E803009DE8030082E80300C9
:1016400008991A6919610999089220465A695961DD
:101650000992FFF7ADFF02A82C4CFFF7A9FF2C4819
:1016600003F0E4FE2B492A4803F0C4FE204604F0B0
:101670005EFA29492048FEF71DFF204604F0A0FA33
:1016800001461D48FEF75EFF2046032104F0FFF9E6
:101690002046032104F0F0F91420314600F08CFCC0
:1016A0002046FFF759F888B92046012104F01FFBB6
:1016B00003221420194900F0B1FC204604F00CFA72
:1016C000174BA2881A80174B01221A7016490A4834
:1016D000FEF7FAFE0D20002100F040FC0AB070BDBC
:1016E000052000F00BFD77E79F8CFF1FC48CFF1FC8
:1016F000BC8BFF1F008FFF1FA48CFF1FB08AFF1F32
:1017000009050000710400006C8BFF1F548BFF1F44
:10171000D08EFF1F801A0600107C000065040000B8
:10172000AC8AFF1F9E8AFF1F0D7C00007C4B1B783C
:101730002DE9F347002B00F0EF807A4B7A4D1A78B1
:101740002AB97A4A298812889142C0F0E1800022A1
:1017500077481A7004F0C0F90446754804F0FAF9A5
:10176000E306288002D4B0F5806F07D1704804F0FA
:10177000C1F970497048FEF7B1FECDE0A20740F113
:10178000CB806A4E2B883288674C6948934203D2DB
:1017900004F0E0F92080F4E76849DFF8C8A1684F59
:1017A000DFF8C481D2B204F0E9F9228833886048B6
:1017B000644ED31A5146614A2380FFF73AFE3946F8
:1017C0005E4A5B48FFF704FE52465F495848FFF700
:1017D000A2FE31463A465C4B5548FFF758FE32466A
:1017E000534641465248FFF78BFE58495248FEF790
:1017F00061FEDAF8000002F037FF4FF002090246FE
:101800000B46CDF800904C4800F056F950494A4834
:10181000FEF750FEDAF8040002F026FFCDF8009043
:1018200002460B46444800F047F949494248FEF752
:1018300041FEDAF8080002F017FFCDF800900246EA
:101840000B463D4800F038F941493B48FEF732FE6F
:10185000DAF80C0002F008FFCDF8009002460B46C3
:10186000354800F029F9344800F0C2F839493248C7
:10187000FEF720FEB7F900102F48FEF723FE34498B
:101880002D48FEF717FEB7F902102B48FEF71AFE97
:101890002F492948FEF70EFEB7F904102648FEF737
:1018A00051FE2D492448FEF705FEB6F900102248E6
:1018B000FEF708FE26492048FEF7FCFDB6F90210A7
:1018C0001D48FEF7FFFD22491B48FEF7F3FDB6F960
:1018D00004101948FEF736FE20491748FEF7EAFDC6
:1018E000B8F900101448FEF7EDFD19491248FEF74B
:1018F000E1FDB8F902101048FEF7E4FD14490E4866
:10190000FEF7D8FDB8F904100B48FEF71BFE03E004
:10191000134803F06AFC10E702B0BDE8F08700BF8F
:101920009E8AFF1FAE8AFF1FB88BFF1FAC8AFF1F66
:10193000548BFF1F1B7C0000A48CFF1F5E8AFF1FBF
:10194000588AFF1FAC8BFF1FA08AFF1F2A7C000054
:10195000317C0000307C0000337C00003A7C0000C9
:10196000B08AFF1F9C8BFF1FB28BFF1F10B5154C59
:10197000154803F037FC1549204603F025FC144AAE
:101980001449204604F04CFB134804F057F8134A5E
:101990004FF07E531360002353609360D360104A6E
:1019A0001360536093600F4A002313805380938029
:1019B0000D4A1380538093800C4A13805380938088
:1019C00010BD00BF6C8BFF1FB08AFF1FA48CFF1FD0
:1019D0003C88FF1F8D510000548BFF1F9C8BFF1F05
:1019E000A08AFF1F588AFF1FAC8BFF1FB28BFF1FFF
:1019F00007B5064B1B88ADF80430036801A95B6886
:101A00000222984703B05DF804FB00BFEC8300009E
:101A100010B5036814465B689847204610BD0EB4A5
:101A200003B503AA52F8041B019204F081FC02B032
:101A30005DF804EB03B0704770B505468AB022B973
:101A40000368C9B21B6898472CE0012A08BF0A2224
:101A500021B930228DF82520212413E02124B1FB67
:101A6000F2F002FB1011C9B209290AAE94BF30315D
:101A700037312644C9B206F8241C014610B1013C96
:101A8000E4B2ECE733B1013CE4B20AAB23442D22CB
:101A900003F8242C2B6801A95B6828462144C4F173
:101AA000220298470AB070BD0029BABF49422D23CF
:101AB00000230A22FFF7C0BF2DE9FF4780461946E1
:101AC000104614461D469DF8309004F0AFFA10B948
:101AD00040464B4907E02046294604F0A7FA012872
:101AE00005D148494046FEF7D8FC064680E020462E
:101AF00029464FF06042444B03F09AF810B140463B
:101B00004249F0E7204629464FF06042404B03F03F
:101B100071F80028F3D1204629460022002303F063
:101B200069F820B105F100473D46012600E0064670
:101B3000384B00270022F9B249450AD2104619460F
:101B40002DA3D3E9002302F0E3FD013702460B4643
:101B5000F1E72046294602F029FC0D46044603F031
:101B600071F807463346404639460A22FFF764FFBC
:101B70000646B9F1000F3BD0384602F053FDB9F1EB
:101B80000F0F28BF4FF00F090B460246294620468B
:101B900002F00AFC09F101092E238DF800305FFAEA
:101BA00089F94FF0010A00221B4B02F0B1FD0D46EE
:101BB000044603F047F804AB5344C0B200F13002CE
:101BC00003F8102C02F03EFD0AF1010702460B4615
:101BD000FFB22046294602F0E7FB4F4501D0BA4646
:101BE000E1E7D8F8003040465B6869464A469847C6
:101BF000304604B0BDE8F087000000A09999B93FD5
:101C0000EE830000F2830000FFFFEF41F683000047
:101C1000FFFFEFC10000E03F00002440AFF3008071
:101C200008B5FFF7CFFCFFF781FD01F065F8FAE793
:101C3000844641EA000313F003036DD1403A41D3D7
:101C400051F8043B40F8043B51F8043B40F8043B96
:101C500051F8043B40F8043B51F8043B40F8043B86
:101C600051F8043B40F8043B51F8043B40F8043B76
:101C700051F8043B40F8043B51F8043B40F8043B66
:101C800051F8043B40F8043B51F8043B40F8043B56
:101C900051F8043B40F8043B51F8043B40F8043B46
:101CA00051F8043B40F8043B51F8043B40F8043B36
:101CB00051F8043B40F8043B51F8043B40F8043B26
:101CC000403ABDD2303211D351F8043B40F8043BC6
:101CD00051F8043B40F8043B51F8043B40F8043B06
:101CE00051F8043B40F8043B103AEDD20C3205D3D6
:101CF00051F8043B40F8043B043AF9D2043208D0CE
:101D0000D2071CBF11F8013B00F8013B01D30B883F
:101D100003806046704700BF082A13D38B078DD01D
:101D200010F003038AD0C3F10403D21ADB071CBFEF
:101D300011F8013B00F8013B80D331F8023B20F859
:101D4000023B7BE7043AD9D3013A11F8013B00F892
:101D5000013BF9D20B7803704B7843708B7883701A
:101D60006046704701B5EAB1102A17DB00F007039F
:101D700033B1C3F10803D21A013B00F8011BFBDCAD
:101D8000C9B241EA012141EA01418C46D308013B35
:101D9000E0E8021CFBDC12F0070203D0013A00F875
:101DA000011BFBDC01BD00BF024B1A6801321A6047
:101DB000704700BFBC8BFF1F08B50B4C236858034E
:101DC00001D500F0CBFA2368590501D501F06AFC72
:101DD00023681A0501D501F0C3FF2368DB04ECD5A5
:101DE00002F03EFAE9E700BF3480044008B5FFF78F
:101DF000E3FFFFFF014B10221A80704700200540CF
:101E00007047FFFF024A1368184410601846704775
:101E10004088FF1F002070474FF0FF3070474FF0A1
:101E2000FF307047EFF313839BB9EFF3108098B93D
:101E3000EFF3058323B10F2B04D9084A985C01E026
:101E40004FF48070EFF311833BB1834238BF1846E3
:101E500070474FF0FF30704718467047F0E300E0DE
:101E600004F042B904F048B910B50023B0FBF2F415
:101E700002FB1400092894BF30303730C0B2C85478
:101E800020460CB10133F1E7CA18547022469A4239
:101E900006DA885CCC5C8C54C8540132013BF6E70E
:101EA000084610BD7047FFFF00F14040A0F59223A7
:101EB0007C2B14D9A0F594237C2B12D9A0F5962362
:101EC0007C2B10D9A0F598237C2B06D9A0F59A205D
:101ED0007D28064828BF0020704705487047054800
:101EE0007047054870470548704700BF1C89FF1FB1
:101EF000FC88FF1F4488FF1F7C88FF1FCC88FF1FC2
:101F00000C4B03EBC00010B544682046FFF7CCFF34
:101F100070B172B6236823F0877323F4803343F0E3
:101F200080732360C4F38404034B40F8243062B60A
:101F300010BD00BFFC830000A51E0000044B054936
:101F400000221A600A60044A106010221A6070476A
:101F500014D0034004D0034000D00340212810B522
:101F600018D80D4A52F8303093F880423CB1012223
:101F700011B183F8802010BD83F8002110BD02EB61
:101F8000C00043681A6811B142F0030201E022F078
:101F900002021A6010BD00BFFC830000212806D891
:101FA000044B53F8303093F80002C0B27047002061
:101FB000704700BFFC830000212810B52BD8164ABB
:101FC00002EBC00301295B68144601D004290FD13C
:101FD00054F83020012082F880024FF4A2721A6077
:101FE0001A6804290CBF42F0200222F0200211E0FE
:101FF00052F83000002280F8802211B94FF480722C
:1020000008E0022902D140F2031203E0032908BFCD
:102010004FF481721A6010BDFC830000212870B556
:102020000D463CD8042A3AD8DFE802F00709050B30
:1020300003000B2306E00A2304E0082302E00C233C
:1020400000E009231E04164B03EBC0035C68216803
:1020500011F4E06101D1FFF7AFFF124B124AC3F850
:102060009C21124AC3F8A021114AC3F8A421114AA5
:10207000C3F8A8212046104AC3F8AC21FFF714FF8B
:1020800068B172B6226822F470222260C4F384031D
:1020900042F08072164340F82350266062B670BD4D
:1020A000FC8300000082FF1F1188FF1FE587FF1FD0
:1020B000B987FF1F8D87FF1F6187FF1F72B60C4B0B
:1020C0000C491A680C4B1B68096862B6490102D5B5
:1020D000322A88BF0133C2F58C32482102F23F1206
:1020E000B2FBF1F24FF47A7000FB0320704700BF9F
:1020F00018E000E004ED00E0BC8BFF1F38B504469B
:10210000FFF7DCFF054624B938BD013C0AD005F5D0
:102110007A75FFF7D3FF401BB0F57A7FF5D200F058
:10212000EBFDF6E738BDFFFF204B4FF4000210B582
:102130001A604FF080721A604FF000721A604FF010
:1021400080621A604FF000621A60194B194A1A4CEB
:10215000002048F6FF7118605960282313609360CF
:102160001361936113629362136393630922226084
:1021700004F58054043420606160A360236144F856
:10218000042C04F5FE2420600C4801600C490B600F
:102190008B600C4B1A6000F06DFF4FF4C870FFF7B6
:1021A000ADFFBDE8104000F0D7BB00BF08E100E084
:1021B000048003400C8003400080034008800B40F3
:1021C0000C800B4000800B40F0B50C4B0C4C1A7887
:1021D00042F0020504EBC50682F001027060094876
:1021E0001A700678002E0CBF8827C82786F00106D3
:1021F00047EA0141067044F83510F0BD288CFF1FF6
:102200000080FF1FA08CFF1F431E032B10B510D8AA
:1022100072B6094A52F8230048B1416842F82310C7
:10222000064A018832F81340611A22F8131062B688
:1022300010BD002010BD00BF188CFF1FF08EFF1FC7
:10224000013803280AD872B6054B53F82030002015
:1022500013B101305B68FBE762B67047002070473E
:102260006C8CFF1F10B572B60123174A1A4412F87E
:10227000012C12071CD59900144A52F831402CB990
:1022800002EB431308305860114B09E041F00101A3
:1022900052F8314064B902EBC103083058600D4B6D
:1022A00042F831300C4B1A78013A1A7062B610BD00
:1022B0000133052BD9D162B6074B00221A70BDE855
:1022C000104000F0C7BB00BF588600000080FF1F11
:1022D00088004000C8004000968CFF1F431E032B5F
:1022E00030B532D8194A400140F01000104472B69F
:1022F000174CE25C032A09D8DFE802F01602180541
:102300000830022213E00830042210E01148124A7B
:1023100050F8234014B940F8231002E052F823008B
:10232000416042F823100FE0032200E00522E2544E
:1023300010F0080F01F108030A8843600CBF8823DE
:10234000C82343EA0243036062B630BD0080FF1F2A
:10235000D48BFF1F6C8CFF1F7C8CFF1F2DE9F84F67
:10236000AB4F3C78E4B214F0040F3D4619D0A94BB2
:102370001B78A3B1A84A117801F0FF0321B1013BFA
:10238000DBB2137003B900BEA44A117801F0FF0359
:1023900029B1013BDBB213700BB900F089FC0423B7
:1023A0003B7004F0080303F0FF02002B00F067828B
:1023B0009B4B9C4C1A78D2B215094FEA920840F018
:1023C000E48104EBC803596854F83830C3F383033D
:1023D000013B0C2B00F2D681DFE813F0950195014B
:1023E000D401D401D401D401D401D401B001D40169
:1023F000D401D4010D008C4D0A684B688B486B608A
:1024000001218B4B44F838302A60DFF8508201708C
:1024100092B240F2816000238242C8F8003023610A
:10242000A36117D8B2F5D06F80F01E81B2F5817F1D
:1024300000F0CF8006D8802A00F0BA80822A00F00F
:10244000BB8031E140F202339A4200F0D180B2F514
:10245000A06F1CE042F22100824200F051810ED8B0
:10246000B2F5086F00F09E80B2F5106F40F01C814D
:10247000684B6C4EAA781A7006F180090AE042F2A5
:1024800021218A4200F0088142F221339A4200F071
:102490000F8109E1336A1B0603D5706A083800F022
:1024A000D9FA08364E45F5D10026B146DFF8B0A17D
:1024B00056F80A0028B1D0F804B000F0CBFA58461C
:1024C000F8E74AF806005B4BDFF898A1F05056F8A1
:1024D0000A0028B1D0F804B000F0BCFA5846F8E77A
:1024E000554B4AF80600F050544B23F81900544B52
:1024F00019F80320023A032A08D8DFE802F00204A0
:102500000204002200E0012203F8092009F1010978
:10251000B9F1040F06F10406C8D14A4B00221A7023
:1025200001269A46484A494B3244334412F8012C5A
:102530009B0012F0080F1A704FEA860925D000F0B0
:102540006BFA38B104EB461308305860404B44F83E
:10255000393006E09AF8003044F8390001338AF83F
:10256000003000F059FA49F0010338B104EBC3021E
:10257000083050602E4A44F8332006E044F8330017
:102580009AF8003001338AF8003049F0020201362F
:1025900049F003090023052E44F8323044F839305D
:1025A000C0D186E01B4B2B4C1B7823700B4683E07D
:1025B000284C237063707EE0AA88042A74D8254CC6
:1025C000920023706370244B9B5C9E0773D521702F
:1025D00071E0AA8802F07F02042A65DC6B88002B78
:1025E00062D191001C4A0A44117821F0020159E09D
:1025F000AA8802F07F02042A56DC6B88002B53D194
:102600009100154A0A44117841F002014AE000BFE6
:10261000802007409F8CFF1F298CFF1FB48CFF1F59
:10262000902007400080FF1F8C8CFF1FA08CFF1F95
:10263000C8004000C48BFF1F7C8CFF1FF08EFF1F63
:10264000D48BFF1F968CFF1F5886000030C80110E6
:1026500088004000978CFF1FC0200740C08BFF1FE1
:10266000188CFF1F6C8CFF1F6A88A9889F4B53F83A
:10267000084CA3F10C00BCB133F80C6C964209D1A4
:1026800033F80A6C8E4205D1120A032A0CBF237854
:10269000038911E00C33EAE7954A1168954A116005
:1026A000A978954A117004E0944B0F221A7027E024
:1026B00000231C4600E00223EE88B34238BF1E46CA
:1026C000402E34BF3546402520462946FFF77CFD85
:1026D000761B2C4403D1402D12D1354603E0402E09
:1026E00034BF3546402520462946FFF76DFD761B51
:1026F0002C4401D1402D03D1814AC8F800401680F6
:102700000122804B3DE0804B1A8842F221039A421D
:1027100010D100237D4AC85C98540133072BF9D1AE
:102720001368862B02D17A4B0F221A7000200146C3
:10273000FFF74AFD774B44F8383023E0764E356892
:10274000B5B1DFF8BC81B8F80090B9F1400F34BFE3
:102750004C46402428462146FFF736FDC4EB0903CA
:102760009BB2A8F800300BB9402C00D12B19336074
:10277000654B1A88B2F5A06F04D100225A709A787E
:10278000664B1A7001225F4B6CE004EBC806013DFA
:10279000736802F00802A3F10800EDB202F0FF0135
:1027A000002A36D000F056F95D485E4B50F82520DF
:1027B000EAB1516840F8251002F108017160595DD5
:1027C00003290BD8DFE801F002040608032104E026
:1027D000022102E0052100E00421595516F0080FFE
:1027E00012880CBF8823C82343EA024342E05A5DA3
:1027F000032A07D8DFE802F040400204002206E086
:10280000012204E016F0080F0CBF022203225A55E1
:1028100032E054F83820120C23F8082C22B3DFF8E9
:1028200034E123F8061C43F8041C5EF825303E49C9
:1028300013B94EF8250002E051F8253058603B4BA3
:1028400041F8250033F815100A4423F8152000F04C
:10285000E3F810B10830706006E0354B44F83800FA
:102860001A7801321A7007E02A4B324A16F0080F24
:1028700008BF134644F8383008233B7070E5E00782
:102880001FD520492B482C4C02230B702B4B1A7060
:102890002B4B186098602B48D8601A619A615C6075
:1028A000164B0D2018702848FF2303702B700274FC
:1028B000264A1370264B9F221A7001230B70BDE825
:1028C000F88F210604D50D4B0D221A7080232B7032
:1028D000A20705D51C4B1A78D2B21A7002232B70AE
:1028E000E30644BF10232B70BDE8F88F6886000014
:1028F000BC8BFF1F008FFF1FC48CFF1FC020074031
:10290000948CFF1F942007408C8CFF1FF88EFF1FB4
:10291000298CFF1FC8004000C08BFF1F9820074074
:102920006C8CFF1FD48BFF1FC48BFF1FF08EFF1F0B
:10293000968CFF1F88004000D88BFF1F288CFF1F3C
:102940000080FF1F2C8CFF1F882007408C20074031
:1029500084200740188CFF1F08B501F0E9FC002215
:102960001A4B0021D15098180832882A4160F7D1BB
:10297000174A106840F48020106002F5283268324F
:10298000C3F307201070C3F307401B0E10751376B6
:10299000FF2302F81C3C02F8143C02F88C3C012393
:1029A00002F8083C82F8641002F8183C094B7022C7
:1029B0006FF450711A700B444FF400721A6003F1F7
:1029C000C04303F5C82310221A7008BD0080FF1F02
:1029D0003480044049E400E000F0A0B800F05CB8A6
:1029E00000F080B800F036B900F0A6B8084600F054
:1029F00025B90846114600F0B7B87047044B0022CD
:102A00001A714FF47A711A73024A99601A6070470A
:102A1000A48CFF1F1885000072B60C4A1168B1FA29
:102A200081F30B2B02D962B6002070474FF00040B3
:102A3000D84021EA0001116062B60549482253439B
:102A4000C8180022CA504260704700BF2489FF1F87
:102A50000084FF1F0C4B4822C31AB3FBF2F30B2B6D
:102A600011D80A4A127822B1094A12780AB1FFF73E
:102A7000F9BB72B6074A4FF0004121FA03F311681F
:102A80001943116062B670470084FF1F968CFF1FC8
:102A90009F8CFF1F2489FF1F10B5104C23686BB15A
:102AA00020684288531C0244147A0288934212D34D
:102AB000FFF7D0FF094B00221A600DE0084B1B788E
:102AC00013B94FF0FF3010BD0320FFF79DFB2060CE
:102AD0000028E5D1F5E74380204610BDC08CFF1FDC
:102AE0009F8CFF1F10B50B4C236813B123686BB983
:102AF00002E0094B1B7813B94FF0FF3010BD0320E3
:102B0000FFF782FB20600028F0D1F5E75A881344D4
:102B1000187A10BDC08CFF1F9F8CFF1F044B988834
:102B2000044B1B681BB11A885B88D31A1844704782
:102B3000F08EFF1FC08CFF1F10B5094B1B786BB1C7
:102B4000084C206818B1FFF785FF0023236003209D
:102B5000FFF75AFB10B1FFF77DFFF8E710BD00BF8C
:102B60009F8CFF1FC08CFF1F2DE9F0472E4E0123C5
:102B70000746894633700C46002C50D02B4D2B68ED
:102B8000AA462BBB48F60148294B1B7803F0FF02ED
:102B90000BB9327015E00420FFF752FB072808D864
:102BA00001233370FFF738FFCAF8000080B91E4BCD
:102BB0001870B8F101081F4B01D01A782AB1012210
:102BC0001A704FF0FF30BDE8F08700F095F8DBE7B2
:102BD000184B00221A702B685888C0F140018C42B3
:102BE00038BF214600F1080C08449C445880641A00
:102BF0008A4204D0B85C0CF802000132F8E71744AE
:102C00005A883F2A07D940221A8019460420FFF724
:102C100065FB00232B60084B05221A70ACE734706B
:102C20004846BDE8F08700BFB58CFF1FB88CFF1F7A
:102C30009F8CFF1FBC8CFF1FB48CFF1F07B502AB1E
:102C4000012103F8010D1846FFF78EFF03B05DF870
:102C500004FBFFFF2DE9F041114B1B78F3B1114E3E
:102C6000114B3468114D01271F7098464CB1002755
:102C700063882F70042023802146FFF72FFB3760E5
:102C800009E0FFF7C9FE014620B104202C70FFF7D0
:102C900025FB00E02F70002388F80030BDE8F081AC
:102CA0009F8CFF1FB88CFF1FB58CFF1FB48CFF1FBC
:102CB00038B50E4B1B7803F0FF05ABB90C4C2168FF
:102CC00031B14B880B800420FFF708FB256038BD2D
:102CD000FFF7A2FE014620B10420BDE83840FFF70F
:102CE000FDBA044B01221A7038BD00BFB58CFF1F1E
:102CF000B88CFF1FB48CFF1F10B50E4C2378BBB9E6
:102D000001232370FFF70AFF08B1FFF776FE00F0FA
:102D100053FC08B100F08AF800F0ACFF08B100F0F5
:102D20000FF901F039FA08B100F094F9002323708B
:102D300010BD00BFC58CFF1F08B50368C9B21B6872
:102D4000984708BD08B50368C9B21B68984708BD15
:102D500008B50368C9B21B68984708BD08B5036881
:102D6000C9B21B68984708BD034800EB5100B0FB8F
:102D7000F1F000F0DBB900BF0044950810B506483B
:102D800000EB51001446B0FBF1F000F0CFF9204603
:102D9000BDE8104000F02EBA0044950800F054BA87
:102DA000084600F085BA084600F0D4BA0846114635
:102DB00000F09ABA08B5084600F0F2FA003018BFE1
:102DC000012008BD08B5084600F00CFB003018BF14
:102DD000012008BD00F0F0BB00F028BC00F0FCBBF7
:102DE00000F0CEBB00F03ABC00F0D4BB08B50846FA
:102DF00000F01EFB012008BD08B5084600F018FBD6
:102E0000012008BD10B508461446114600F05AFBD3
:102E1000204610BD38B508460D4603F051FA044669
:102E20002146284600F04EFB204638BD7047FFFF84
:102E3000044B00221A714FF47A711A73024A996096
:102E40001A607047C88CFF1F4085000008B50368F2
:102E5000C9B21B68984708BD08B50368C9B21B68AA
:102E6000984708BD08B50368C9B21B68984708BDF4
:102E700008B50368C9B21B68984708BD034800EB52
:102E80005100B0FBF1F000F091BC00BF0044950888
:102E900010B5064800EB51001446B0FBF1F000F00D
:102EA00085FC2046BDE8104000F0E4BC00449508D5
:102EB00000F00ABD084600F05FBD084600F0AEBD58
:102EC0000846114600F074BD08B5084600F0CEFD76
:102ED000003018BF012008BD08B5084600F0E8FD25
:102EE000003018BF012008BD00F0C4BE00F0FCBED9
:102EF00000F0D0BE00F0A2BE00F00EBF00F0A8BEF1
:102F000008B5084600F0F2FD012008BD08B50846E6
:102F100000F0ECFD012008BD10B50846144611462E
:102F200000F02EFE204610BD38B508460D4603F0D1
:102F3000C7F904462146284600F022FE204638BD47
:102F40007047FFFF044B00221A714FF47A711A7315
:102F5000024A99601A607047D88CFF1FA085000054
:102F600008B50368C9B21B68984708BD08B503686F
:102F7000C9B21B68984708BD08B50368C9B21B6889
:102F8000984708BD08B50368C9B21B68984708BDD3
:102F9000034800EB5100B0FBF1F000F065BF00BF4B
:102FA00000A24A0410B5064800EB51001446B0FBDD
:102FB000F1F000F059FF2046BDE8104000F096BF48
:102FC00000A24A0400F0BCBF084600F0EDBF08466E
:102FD00001F02EB80846114601F002B808B50846BF
:102FE00001F028F8003018BF012008BD08B50846D8
:102FF00001F042F8003018BF012008BD01F0CCB844
:1030000001F004B901F0D8B801F0AAB801F016B97E
:1030100001F0B0B808B5084601F04CF8012008BD31
:1030200008B5084601F046F8012008BD10B508466D
:103030001446114601F088F8204610BD38B5084600
:103040000D4603F03DF904462146284601F07CF880
:10305000204638BD7047FFFF044B00221A714FF421
:103060007A711A73024A99601A607047E88CFF1FE0
:103070000086000010B5204B2048214960221A70BC
:10308000E1225A701F4B204A1C78204B082C01D19A
:10309000012402E00A2C03D119240460132005E066
:1030A0000C2C0CBF15243D24046012200860146011
:1030B0001860174B17491B78174A03B101230B609F
:1030C0001360164B164A1978164B012901D8802136
:1030D0000BE0042901D8842107E0082901D88521C3
:1030E00003E0102994BF86218721116019600E4BDF
:1030F00001221A7010BD00BF0040074008B0034015
:103100000CB003402889FF1F08B00B400CB00B40E7
:10311000F98CFF1F20B0034020B00B402989FF1F0E
:1031200024B0034024B00B40F88CFF1F234B1A68D7
:1031300042F480621A60224A00231370214A1370FD
:10314000214A1370214A1370214A1370214B1B78B6
:103150002BB1152B07D140F213321F4B02E01F4B4E
:1031600040F213321A601E4B1B78012B05D0052B41
:1031700007D14FF451721B4B02E01B4B4FF45172BD
:103180001A601A4BC0F344321A70C0F347125A70D7
:103190000221042200F01F0098729A70D9745A75A7
:1031A00088221A743C22DA70114B40226FF44A7163
:1031B0001A700B444FF400521A6070473480044078
:1031C000838DFF1F018DFF1F8C8DFF1F848DFF1FBF
:1031D000008DFF1F428DFF1F18C0044040A0044017
:1031E0002A89FF1F1CC0044044A0044000A00640E0
:1031F0002DE400E0134A937800F0030103F0EC03A0
:103200000B43410748BF43F01003937000F00F03D6
:10321000042B0C4903D18B7943F040038B71537914
:10322000C20603F0EF03074A48BF43F0100353718F
:103230009379810603F0EF0348BF43F010039371C5
:10324000704700BF00A0064008B5114B1B685B0526
:1032500000D408BD0F4B1A7802F0FF0312B1FFF73C
:103260004BFDF7E70C4A4FF4005111600B4A0C4933
:10327000D37040F203120A604A600A4A13700A4A85
:1032800013700A4B1B680BB101221A7008BD00BFF6
:1032900034800440008DFF1F84E100E000A0064060
:1032A00040A00440838DFF1F018DFF1FFC8CFF1F7A
:1032B00038B50446094B1B7803F0FF05002BF9D104
:1032C00020460121FEF778FE20462946FEF746FEFD
:1032D000034B53F83420034B1A6038BD008DFF1F99
:1032E000FC830000888DFF1F10B509B140F08000FD
:1032F000144A13789842144622D0134A1268520591
:103300001DD503F07F03012B04D0052B05D100222E
:103310000E4B01E00E4B00221A60002900F07F02E4
:103320000CBF44236023012A05D0052A07D143F4AA
:103330004073064A02E0064A43F44073136020706B
:1033400010BD00BF2A89FF1F348004401CC0044008
:1033500044A004400E4A1378984218D00D490968D9
:10336000490513D52BB1152B05D10B4B0021196045
:1033700001E00A490B6028B1152807D140F213314A
:10338000054B02E0054B40F2133119601070704795
:10339000428DFF1F3480044018C0044040A0044008
:1033A0000D4A38B5146814F480624FF0000410D050
:1033B00021280A4D0AD80A4A012152F830302B60E0
:1033C000FEF7FAFD2B681C70012038BD2C602046EA
:1033D00038BD104638BD00BF34800440FC8CFF1F50
:1033E000FC8300000E4B1B6813F4806316D0122878
:1033F0000C4B03D140F202310B4A04E0142809D1EE
:103400000A4A40F2023111605A7B42F001025A73BB
:10341000012070475A7B02F0FE025A730020704769
:103420003480044000A006400CA0044014C00440B6
:10343000F8B51D4B1B685A05064633D51B4B1B6858
:103440000BB101221A701A4B1C780134402C1F4614
:1034500028BF0024174D2B78A34218D1FEF7E2FCB9
:1034600040280FDC144A13791B06F3D52B78134937
:103470000133402B28BF0023C95CDBB2C9B2D17134
:103480002B70E7E7FF28E5DDFFF736FCE2E70B4BA3
:10349000F6B21E550A4B01221A70074BE4B2BC2249
:1034A0003C70DA70F8BD00BF34800440888DFF1F87
:1034B0008C8DFF1F848DFF1F00A00640028DFF1F13
:1034C000008DFF1F274B1B685A052DE9F047074663
:1034D0008A4644D5244B1B680BB101221A703D4625
:1034E00007EB0A039D4237D2DFF890801F4E98F811
:1034F000004096F800900134402C28BF00245FFA69
:1035000089F9A1451DD11A4BBC22DA70FEF78AFC5D
:1035100040280FDC164A13791B060FD5337815495E
:103520000133402B28BF0023C95CDBB2C9B2D17183
:10353000337003E0FF2801DDFFF7DEFB33784B45F6
:10354000E4D00C4B15F8012B1A550B4B0122E4B2B9
:103550001A7088F80040C3E7054BBC22DA70BDE85A
:10356000F08700BF34800440888DFF1F848DFF1FCB
:1035700000A00640028DFF1F008DFF1F8C8DFF1FD6
:1035800008B5034B1B7813B1FFF7B6FBF9E708BD8D
:10359000008DFF1F064A074B1B781078DBB2C0B2C4
:1035A00083422CBF3F3000F1FF30C01A704700BF8C
:1035B000848DFF1F8C8DFF1F054B1878054B1B78E2
:1035C000C0B2DBB2984238BF4030C01A704700BF6B
:1035D000838DFF1F018DFF1F10B5104B10491A7806
:1035E0000B78D2B2DBB29A4214D00133402B28BF01
:1035F00000230C48DCB2C05C0C700B490968C0B2F7
:1036000051B19A4238BF4032D31A1A2B04DC00233E
:103610000B7010BD4FF0FF3010BD00BF838DFF1F3A
:10362000018DFF1F438DFF1FFC8CFF1F084B1A7875
:10363000084B1B78DBB29A4207D00133402B28BFDE
:103640000023054AD05CC0B270474FF0FF3070478E
:10365000838DFF1F018DFF1F438DFF1F0C4B1B68C8
:103660005B0514D50B4BDA7802F0CB02DA704022FE
:103670005A74DA7842F03402DA70074B1A78074B42
:10368000D2B21A70064B1B680BB100221A70704739
:103690003480044000A00640018DFF1F838DFF1F72
:1036A000FC8CFF1F30B5374B1A7912F0300F31D038
:1036B00072B69A7D02F0FF0022B9DA7940225A747C
:1036C00062B627E062B6304A304913780978DBB237
:1036D000C9B214462B4AD5795A1C402A28BF002269
:1036E0008A42EDB202D02A4B9D541346421E12F07C
:1036F000FF00EFD1DAB22270264A126852B18B4233
:1037000036BFC1F14001C1EB03035B18272BC4BFD7
:10371000012313701B4BD978C9B20C0620D51B7935
:1037200018061DD51C4B1D4A1D781378EDB2DBB26F
:103730001046AB420CD0134A0133402B1479184C7D
:1037400028BF0023E45CE4B2D471127D072AF0D9CB
:10375000DBB203700B4B1A79120644BF7C22DA707D
:103760004B060ED5074B1A7912F0400F194608D0B8
:103770000C4B00221A700C4B1B6803B11A703C23CF
:10378000CB7030BD00A00640838DFF1F018DFF1F51
:10379000438DFF1FFC8CFF1F8C8DFF1F848DFF1F2F
:1037A000028DFF1F008DFF1F888DFF1F234B1A689E
:1037B00042F400621A60224A00231370214A1370F7
:1037C000214A1370214A1370214A1370214B1B7830
:1037D000092B05D01A2B07D140F213321E4B02E001
:1037E0001E4B40F213321A601D4B1B780A2B05D07A
:1037F0001F2B07D14FF451721A4B02E01A4B4FF4B2
:1038000051721A60194BC0F344321A70C0F3471258
:103810005A7000F01F000422022198729A70D97425
:103820005A7588221A743C22DA70114B40221A70A1
:10383000A3F22B334FF400421A60704734800440E7
:10384000FE8DFF1F958DFF1F048EFF1FFF8DFF1F35
:10385000948DFF1F2B89FF1F04D004400CB004403F
:103860002C89FF1F00D0044010B0044000B0064077
:103870002FE400E0134A937800F0030103F0EC0317
:103880000B43410748BF43F01003937000F00F0350
:10389000042B0C4903D18B7943F040038B7153798E
:1038A000C20603F0EF03074A48BF43F01003537109
:1038B0009379810603F0EF0348BF43F0100393713F
:1038C000704700BF00B0064008B51E4B1B681B05C3
:1038D00000D408BD1C4B1B7803F0FF0213B1FFF7A7
:1038E0000BFAF7E7194B4FF400411960184BDA70E7
:1038F000184B1B78092B05D01A2B07D140F2031265
:10390000154B02E0154B40F203121A60144B1B7862
:1039100003F07F030A2B05D01F2B07D140F20312BF
:10392000104B02E0104B40F203121A600F4A0023C2
:1039300013700F4A13700F4B1B680BB101221A70E2
:1039400008BD00BF34800440948DFF1F84E100E077
:1039500000B006402B89FF1F04D004400CB0044087
:103960002C89FF1F00D0044010B00440FE8DFF1FC3
:10397000958DFF1F908DFF1F38B50446094B1B78AE
:1039800003F0FF05002BF9D120460121FEF714FBBF
:1039900020462946FEF7E2FA034B53F83420034B46
:1039A0001A6038BD948DFF1FFC830000008EFF1F3E
:1039B00010B509B140F08000144A137898421446BB
:1039C00022D0134A126812051DD503F07F030A2B7B
:1039D00004D01F2B05D100220E4B01E00E4B00221C
:1039E0001A60002900F07F020CBF442360230A2ADA
:1039F00005D01F2A07D143F44073064A02E0064A65
:103A000043F440731360207010BD00BF2C89FF1F6A
:103A10003480044000D0044010B004400F4A1378B2
:103A200098421AD00E490968090515D5092B04D00A
:103A30001A2B05D100210B4B01E00B4B0021196023
:103A4000092805D01A2807D140F21331054B02E0AE
:103A5000054B40F213311960107070472B89FF1F1E
:103A60003480044004D004400CB004400D4A38B502
:103A7000146814F400624FF0000410D021280A4D9D
:103A80000AD80A4A012152F830302B60FEF794FA26
:103A90002B681C70012038BD2C60204638BD1046B4
:103AA00038BD00BF34800440908DFF1FFC830000B0
:103AB0000B4B1B6813F4006310D01728094B09D176
:103AC000094A40F2023111605A7B42F001025A73F6
:103AD000012070475A7B02F0FE025A7300207047A3
:103AE0003480044000B0064008B00440F8B51D4BD7
:103AF0001B681A05064633D51B4B1B680BB1012208
:103B00001A701A4B1C780134282C1F4628BF002439
:103B1000174D2B78A34218D1FEF784F940280FDC0B
:103B2000144A13791B06F3D52B7813490133282B3C
:103B300028BF0023C95CDBB2C9B2D1712B70E7E7A3
:103B4000FF28E5DDFFF7D8F8E2E70B4BF6B21E558C
:103B50000A4B01221A70074BE4B2BC223C70DA70A7
:103B6000F8BD00BF34800440008EFF1F048EFF1F8D
:103B7000FF8DFF1F00B00640968DFF1F948DFF1F25
:103B8000274B1B681A052DE9F04707468A4644D59E
:103B9000244B1B680BB101221A703D4607EB0A0348
:103BA0009D4237D2DFF890801F4E98F8004096F87B
:103BB00000900134282C28BF00245FFA89F9A14520
:103BC0001DD11A4BBC22DA70FEF72CF940280FDC0D
:103BD000164A13791B060FD5337815490133282B64
:103BE00028BF0023C95CDBB2C9B2D171337003E0D6
:103BF000FF2801DDFFF780F833784B45E4D00C4B0C
:103C000015F8012B1A550B4B0122E4B21A7088F8F3
:103C10000040C3E7054BBC22DA70BDE8F08700BF67
:103C200034800440008EFF1FFF8DFF1F00B0064050
:103C3000968DFF1F948DFF1F048EFF1F08B5034B49
:103C40001B7813B1FFF758F8F9E708BD948DFF1FF3
:103C5000064A074B1B781078DBB2C0B283422CBFF8
:103C6000273000F1FF30C01A704700BFFF8DFF1FE3
:103C7000048EFF1F054B1878054B1B78C0B2DBB2D2
:103C8000984238BF4030C01A704700BFFE8DFF1FFA
:103C9000958DFF1F10B5104B10491A780B78D2B2D2
:103CA000DBB29A4214D00133402B28BF00230C48CA
:103CB000DCB2C05C0C700B490968C0B251B19A42C9
:103CC00038BF4032D31A1A2B04DC00230B7010BD0E
:103CD0004FF0FF3010BD00BFFE8DFF1F958DFF1F01
:103CE000BE8DFF1F908DFF1F084B1A78084B1B7865
:103CF000DBB29A4207D00133402B28BF0023054A8C
:103D0000D05CC0B270474FF0FF307047FE8DFF1F90
:103D1000958DFF1FBE8DFF1F0C4B1B681B0514D517
:103D20000B4BDA7802F0CB02DA7040225A74DA7860
:103D300042F03402DA70074B1A78074BD2B21A708D
:103D4000064B1B680BB100221A7070473480044088
:103D500000B00640958DFF1FFE8DFF1F908DFF1F49
:103D600030B5374B1A7912F0300F31D072B69A7DD8
:103D700002F0FF0022B9DA7940225A7462B627E0D5
:103D800062B6304A304913780978DBB2C9B21446BA
:103D90002B4AD5795A1C402A28BF00228A42EDB20C
:103DA00002D02A4B9D541346421E12F0FF00EFD161
:103DB000DAB22270264A126852B18B4236BFC1F184
:103DC0004001C1EB03035B18272BC4BF0123137011
:103DD0001B4BD978C9B20C0620D51B7918061DD506
:103DE0001C4B1D4A1D781378EDB2DBB21046AB4276
:103DF0000CD0134A0133282B1479184C28BF002308
:103E0000E45CE4B2D471127D072AF0D9DBB203700E
:103E10000B4B1A79120644BF7C22DA704B060ED582
:103E2000074B1A7912F0400F194608D00C4B0022AC
:103E30001A700C4B1B6803B11A703C23CB7030BD59
:103E400000B00640FE8DFF1F958DFF1FBE8DFF1F2A
:103E5000908DFF1F048EFF1FFF8DFF1F968DFF1F8C
:103E6000948DFF1F008EFF1F174B1A6842F480527B
:103E70001A60164A00231370154A1370154A1370FE
:103E8000154A1370154A1370154A40F21331116028
:103E90004FF451715160134AC0F344311170C0F3B3
:103EA000471100F01F0051709072937013742C230F
:103EB000D3700D4B40226FF44B711A700B444FF4CA
:103EC00000321A60704700BF34800440768EFF1FB6
:103ED0000D8EFF1F7C8EFF1F778EFF1F0C8EFF1F26
:103EE00008C0044000C0064031E400E0134A937863
:103EF00000F0030103F0EC030B43410748BF43F01C
:103F00001003937000F00F03042B0C4903D18B793D
:103F100043F040038B715379C20603F0EF03074A65
:103F200048BF43F0100353719379810603F0EF0308
:103F300048BF43F010039371704700BF00C00640B4
:103F400008B5114B1B68DB0400D408BD0F4B1A7871
:103F500002F0FF0312B1FEF7CFFEF7E70C4A4FF471
:103F6000003111600B4A0C49D37040F203120A6011
:103F70004A600A4A13700A4A13700A4B1B680BB155
:103F800001221A7008BD00BF348004400C8EFF1F50
:103F900084E100E000C0064008C00440768EFF1FA8
:103FA0000D8EFF1F088EFF1F38B50446094B1B7886
:103FB00003F0FF05002BF9D120460121FDF7FCFF9E
:103FC00020462946FDF7CAFF034B53F83420034B24
:103FD0001A6038BD0C8EFF1FFC830000788EFF1F17
:103FE00010B509B140F080000E4A1378984217D0FE
:103FF0000D4C2468E40412D503F07F03082B02D192
:104000000A4B00241C60002900F07F030CBF4421F0
:104010006021082B03D1054B41F4407119601070E9
:1040200010BD00BF2D89FF1F348004400CC0044028
:104030007047FFFF0D4A38B5146814F480524FF0F2
:10404000000410D021280A4D0AD80A4A012152F84A
:1040500030302B60FDF7B0FF2B681C70012038BD9D
:104060002C60204638BD104638BD00BF3480044067
:10407000088EFF1FFC8300000B4B1B6813F480535A
:1040800010D00E28094B09D1094A40F202311160C3
:104090005A7B42F001025A73012070475A7B02F0AA
:1040A000FE025A73002070473480044000C006406E
:1040B00004C00440F8B51D4B1B68DA04064633D52E
:1040C0001B4B1B680BB101221A701A4B1C78013470
:1040D000282C1F4628BF0024174D2B78A34218D147
:1040E000FDF7A0FE40280FDC144A13791B06F3D518
:1040F0002B7813490133282B28BF0023C95CDBB27E
:10410000C9B2D1712B70E7E7FF28E5DDFEF7F4FDBA
:10411000E2E70B4BF6B21E550A4B01221A70074B11
:10412000E4B2AC223C70DA70F8BD00BF34800440C9
:10413000788EFF1F7C8EFF1F778EFF1F00C006400A
:104140000E8EFF1F0C8EFF1F38B504464518AC427B
:1041500004D014F8010BFFF7ADFFF8E738BDFFFFFF
:1041600008B5034B1B7813B1FEF7C6FDF9E708BD90
:104170000C8EFF1F064A074B1B781078DBB2C0B2CB
:1041800083422CBF273000F1FF30C01A704700BFB8
:10419000778EFF1F7C8EFF1F054B1878054B1B7811
:1041A000C0B2DBB2984238BF4030C01A704700BF7F
:1041B000768EFF1F0D8EFF1F10B5104B10491A7819
:1041C0000B78D2B2DBB29A4214D00133402B28BF15
:1041D00000230C48DCB2C05C0C700B490968C0B20B
:1041E00051B19A4238BF4032D31A1A2B04DC002353
:1041F0000B7010BD4FF0FF3010BD00BF768EFF1F5B
:104200000D8EFF1F368EFF1F088EFF1F084B1A787A
:10421000084B1B78DBB29A4207D00133402B28BFF2
:104220000023054AD05CC0B270474FF0FF307047A2
:10423000768EFF1F0D8EFF1F368EFF1F054B1A78DF
:10424000054BD2B21A70054B1B680BB100221A70D5
:10425000704700BF0D8EFF1F768EFF1F088EFF1F59
:1042600010B5294B1A79920620D5284AD8791378A7
:1042700027490133402B097828BF00238B42C0B265
:1042800003D02449C854D9B21170234A116869B1C6
:10429000224A1278D2B2934236BFC2F14002C2EB38
:1042A00003039B18272BC4BF01230B70164AD17838
:1042B000C9B20C0616D51379180613D5184B174832
:1042C0001C780378DBB29C4202D16C23D37009E0E6
:1042D0000133282B28BF0023124CE45CDBB2E4B28C
:1042E000D47103704B060ED5074B1A7912F0400FAC
:1042F000194608D00C4B00221A700C4B1B6803B1F6
:104300001A702C23CB7010BD00C00640768EFF1FA4
:104310000D8EFF1F368EFF1F088EFF1F778EFF1F2B
:104320007C8EFF1F0E8EFF1F0C8EFF1F788EFF1FCF
:104330001FB572B6154B70221A70154A41211170C3
:104340000F2102F8011C80221A701A781206FCD57F
:10435000104B186862B6104B984298BF0A2301AC04
:1043600098BF584321460A22FDF77EFD0023E15CF9
:104370000A4A29B102EB430001330A2B4180F6D1EE
:1043800001335B00137004B010BD00BF0000024099
:1043900007000240080002407F969800B689FF1F80
:1043A00081F0004102E000BF83F0004330B54FEAE6
:1043B00041044FEA430594EA050F08BF90EA020F53
:1043C0001FBF54EA000C55EA020C7FEA645C7FEAE6
:1043D000655C00F0E2804FEA5454D4EB5555B8BF09
:1043E0006D420CDD2C4480EA020281EA030382EA7A
:1043F000000083EA010180EA020281EA0303362D0C
:1044000088BF30BD11F0004F4FEA01314FF4801CDE
:104410004CEA113102D0404261EB410113F0004FF0
:104420004FEA03334CEA133302D0524263EB4303A7
:1044300094EA050F00F0A780A4F10104D5F1200E45
:104440000DDB02FA0EFC22FA05F2801841F10001A0
:1044500003FA0EF2801843FA05F359410EE0A5F174
:1044600020050EF1200E012A03FA0EFC28BF4CF0A5
:10447000020C43FA05F3C01851EBE37101F000455B
:1044800007D54FF0000EDCF1000C7EEB00006EEB68
:104490000101B1F5801F1BD3B1F5001F0CD34908F2
:1044A0005FEA30004FEA3C0C04F101044FEA445249
:1044B00012F5800F80F09A80BCF1004F08BF5FEAD0
:1044C000500C50F1000041EB045141EA050130BDB0
:1044D0005FEA4C0C404141EB010111F4801FA4F153
:1044E0000104E9D191F0000F04BF01460020B1FAA8
:1044F00081F308BF2033A3F10B03B3F120020CDAE0
:104500000C3208DD02F1140CC2F10C0201FA0CF0BD
:1045100021FA02F10CE002F11402D8BFC2F1200C22
:1045200001FA02F120FA0CFCDCBF41EA0C019040D8
:10453000E41AA2BF01EB0451294330BD6FEA040421
:104540001F3C1CDA0C340EDC04F11404C4F120020C
:1045500020FA04F001FA02F340EA030021FA04F31E
:1045600045EA030130BDC4F10C04C4F1200220FA75
:1045700002F001FA04F340EA0300294630BD21FAB3
:1045800004F0294630BD94F0000F83F4801306BF79
:1045900081F480110134013D4EE77FEA645C18BF6D
:1045A0007FEA655C29D094EA050F08BF90EA020F04
:1045B00005D054EA000C04BF1946104630BD91EAFC
:1045C000030F1EBF0021002030BD5FEA545C05D1FF
:1045D0004000494128BF41F0004130BD14F580043E
:1045E0003CBF01F5801130BD01F0004545F0FE41B2
:1045F00041F470014FF0000030BD7FEA645C1ABFE7
:10460000194610467FEA655C1CBF0B46024650EA1D
:10461000013406BF52EA033591EA030F41F4002149
:1046200030BD00BF90F0000F04BF0021704730B5CF
:104630004FF4806404F132044FF000054FF00001A4
:1046400050E700BF90F0000F04BF0021704730B565
:104650004FF4806404F1320410F0004548BF40423A
:104660004FF000013EE700BF42004FEAE2014FEA8F
:1046700031014FEA02701FBF12F07F4393F07F4F6A
:1046800081F06051704792F0000F14BF93F07F4F9C
:10469000704730B54FF4607401F0004521F00041DF
:1046A00020E700BF50EA010208BF704730B54FF065
:1046B00000050AE050EA010208BF704730B511F06A
:1046C000004502D5404261EB41014FF4806404F1A2
:1046D00032045FEA915C3FF4DCAE4FF003025FEA24
:1046E000DC0C18BF03325FEADC0C18BF033202EBAC
:1046F000DC02C2F1200300FA03FC20FA02F001FA06
:1047000003FE40EA0E0021FA02F11444C1E600BFA4
:1047100070B54FF0FF0C4CF4E06C1CEA11541DBF57
:104720001CEA135594EA0C0F95EA0C0F00F0DEF822
:104730002C4481EA030621EA4C5123EA4C5350EA07
:10474000013518BF52EA033541F4801143F4801358
:1047500038D0A0FB02CE4FF00005E1FB02E506F0E9
:104760000042E0FB03E54FF00006E1FB03569CF03E
:10477000000F18BF4EF0010EA4F1FF04B6F5007F44
:1047800064F5407404D25FEA4E0E6D4146EB0606B6
:1047900042EAC62141EA55514FEAC52040EA5E503F
:1047A0004FEACE2EB4F1FD0C88BFBCF5E06F1ED8E9
:1047B000BEF1004F08BF5FEA500E50F1000041EB20
:1047C000045170BD06F0004646EA010140EA0200CD
:1047D00081EA0301B4EB5C04C2BFD4EB0C0541EAEF
:1047E000045170BD41F480114FF0000E013C00F304
:1047F000AB8014F1360FDEBF002001F0004170BD28
:10480000C4F10004203C35DA0C341BDC04F1140440
:10481000C4F1200500FA05F320FA04F001FA05F2CC
:1048200040EA020001F0004221F0004110EBD37099
:1048300021FA04F642EB06015EEA430E08BF20EAC5
:10484000D37070BDC4F10C04C4F1200500FA04F368
:1048500020FA05F001FA04F240EA020001F00041FA
:1048600010EBD37041F100015EEA430E08BF20EA6D
:10487000D37070BDC4F1200500FA05F24EEA020EB5
:1048800020FA04F301FA05F243EA020321FA04F0E4
:1048900001F0004121FA04F220EA020000EBD3709B
:1048A0005EEA430E08BF20EAD37070BD94F0000F9B
:1048B0000FD101F00046400041EB010111F4801FCF
:1048C00008BF013CF7D041EA060195F0000F18BF80
:1048D000704703F00046520043EB030313F4801FBC
:1048E00008BF013DF7D043EA0603704794EA0C0F76
:1048F0000CEA135518BF95EA0C0F0CD050EA41068C
:1049000018BF52EA4306D1D181EA030101F0004108
:104910004FF0000070BD50EA410606BF1046194630
:1049200052EA430619D094EA0C0F02D150EA01363C
:1049300013D195EA0C0F05D152EA03361CBF10467D
:1049400019460AD181EA030101F0004141F0FE411C
:1049500041F470014FF0000070BD41F0FE4141F4A0
:10496000780170BD70B54FF0FF0C4CF4E06C1CEAA0
:1049700011541DBF1CEA135594EA0C0F95EA0C0F55
:1049800000F0A7F8A4EB050481EA030E52EA033510
:104990004FEA013100F088804FEA03334FF0805531
:1049A00045EA131343EA12634FEA022245EA11155E
:1049B00045EA10654FEA00260EF000419D4208BF0F
:1049C000964244F1FD0404F5407402D25B084FEABC
:1049D0003202B61A65EB03055B084FEA32024FF468
:1049E00080104FF4002CB6EB020E75EB030E22BFC5
:1049F000B61A754640EA0C005B084FEA3202B6EB85
:104A0000020E75EB030E22BFB61A754640EA5C0033
:104A10005B084FEA3202B6EB020E75EB030E22BFC3
:104A2000B61A754640EA9C005B084FEA3202B6EBC4
:104A3000020E75EB030E22BFB61A754640EADC0083
:104A400055EA060E18D04FEA051545EA16754FEAE5
:104A500006164FEAC30343EA52734FEAC2025FEA03
:104A60001C1CC0D111F4801F0BD141EA00014FF092
:104A700000004FF0004CB6E711F4801F04BF014363
:104A80000020B4F1FD0C88BFBCF5E06F3FF6AFAE7F
:104A9000B5EB030C04BFB6EB020C5FEA500C50F10F
:104AA000000041EB045170BD0EF0004E4EEA113192
:104AB00014EB5C04C2BFD4EB0C0541EA045170BD99
:104AC00041F480114FF0000E013C90E645EA060EDD
:104AD0008DE60CEA135594EA0C0F08BF95EA0C0F0B
:104AE0003FF43BAF94EA0C0F0AD150EA01347FF453
:104AF00034AF95EA0C0F7FF425AF104619462CE72A
:104B000095EA0C0F06D152EA03353FF4FDAE10468C
:104B1000194622E750EA410618BF52EA43067FF4DD
:104B2000C5AE50EA41047FF40DAF52EA43057FF46D
:104B3000EBAE12E74FF0FF3C06E000BF4FF0010C78
:104B400002E000BF4FF0010C4DF804CD4FEA410CDC
:104B50007FEA6C5C4FEA430C18BF7FEA6C5C1BD0A9
:104B600001B050EA410C0CBF52EA430C91EA030F2A
:104B700002BF90EA020F0020704710F1000F91EA87
:104B8000030F58BF994208BF90422CBFD8176FEA55
:104B9000E37040F0010070474FEA410C7FEA6C5C23
:104BA00002D150EA013C07D14FEA430C7FEA6C5C2A
:104BB000D6D152EA033CD3D05DF8040B704700BF56
:104BC0008446104662468C461946634600E000BFA4
:104BD00001B5FFF7B7FF002848BF10F1000F01BD76
:104BE0004DF808EDFFF7F4FF0CBF012000205DF841
:104BF00008FB00BF4DF808EDFFF7EAFF34BF0120C6
:104C000000205DF808FB00BF4DF808EDFFF7E0FF5E
:104C100094BF012000205DF808FB00BF4DF808EDAF
:104C2000FFF7CEFF94BF012000205DF808FB00BF16
:104C30004DF808EDFFF7C4FF34BF012000205DF8F8
:104C400008FB00BF4A0011D212F5001211D20DD597
:104C50006FF47873B3EB62520ED44FEAC12343F082
:104C6000004343EA505323FA02F070474FF000002C
:104C7000704750EA013002D14FF0FF3070474FF0DB
:104C80000000704780F0004002E000BF81F000416A
:104C900042001FBF5FEA410392EA030F7FEA226CE2
:104CA0007FEA236C6AD04FEA1262D2EB1363C1BF72
:104CB000D218414048404140B8BF5B42192B88BFE1
:104CC000704710F0004F40F4000020F07F4018BF04
:104CD000404211F0004F41F4000121F07F4118BF24
:104CE000494292EA030F3FD0A2F1010241FA03FCCC
:104CF00010EB0C00C3F1200301FA03F100F00043B4
:104D000002D5494260EB4000B0F5000F13D3B0F17B
:104D1000807F06D340084FEA310102F10102FE2AEA
:104D200051D2B1F1004F40EBC25008BF20F001005A
:104D300040EA03007047490040EB000010F4000F08
:104D4000A2F10102EDD1B0FA80FCACF1080CB2EB9B
:104D50000C0200FA0CF0AABF00EBC25052421843FA
:104D6000BCBFD0401843704792F0000F81F400019F
:104D700006BF80F400000132013BB5E74FEA410372
:104D80007FEA226C18BF7FEA236C21D092EA030FDE
:104D900004D092F0000F08BF0846704790EA010F58
:104DA0001CBF0020704712F07F4F04D1400028BF85
:104DB00040F00040704712F100723CBF00F5000067
:104DC000704700F0004343F0FE4040F4000070479D
:104DD0007FEA226216BF08467FEA23630146420249
:104DE00006BF5FEA412390EA010F40F4800070475C
:104DF0004FF0000304E000BF10F0004348BF404202
:104E00005FEA000C08BF704743F0964301464FF03D
:104E100000001CE050EA010208BF70474FF0000399
:104E20000AE000BF50EA010208BF704711F00043DA
:104E300002D5404261EB41015FEA010C02BF8446AA
:104E40000146002043F0B64308BFA3F18053A3F509
:104E50000003BCFA8CF2083AA3EBC25310DB01FA50
:104E600002FC634400FA02FCC2F12002BCF1004FD4
:104E700020FA02F243EB020008BF20F00100704765
:104E800002F1200201FA02FCC2F1200250EA4C00B9
:104E900021FA02F243EB020008BF20EADC707047FF
:104EA0004FF0FF0C1CEAD0521EBF1CEAD15392EA0D
:104EB0000C0F93EA0C0F6FD01A4480EA010C4002E9
:104EC00018BF5FEA41211ED04FF0006343EA501043
:104ED00043EA5111A0FB01310CF00040B1F5000F85
:104EE0003EBF490041EAD3715B0040EA010062F134
:104EF0007F02FD2A1DD8B3F1004F40EBC25008BF1E
:104F000020F00100704790F0000F0CF0004C08BF3B
:104F100049024CEA502040EA51207F3AC2BFD2F108
:104F2000FF0340EAC250704740F400004FF0000316
:104F3000013A5DDC12F1190FDCBF00F00040704750
:104F4000C2F10002410021FA02F1C2F1200200FA8E
:104F500002FC5FEA310040F1000053EA4C0308BF55
:104F600020EADC70704792F0000F00F0004C02BFA6
:104F7000400010F4000F013AF9D040EA0C0093F021
:104F8000000F01F0004C02BF490011F4000F013B7B
:104F9000F9D041EA0C018FE70CEAD15392EA0C0FE9
:104FA00018BF93EA0C0F0AD030F0004C18BF31F054
:104FB000004CD8D180EA010000F00040704790F02A
:104FC000000F17BF90F0004F084691F0000F91F0CE
:104FD000004F14D092EA0C0F01D142020FD193EA94
:104FE0000C0F03D14B0218BF084608D180EA01001C
:104FF00000F0004040F0FE4040F40000704740F0F8
:10500000FE4040F4400070474FF0FF0C1CEAD052C5
:105010001EBF1CEAD15392EA0C0F93EA0C0F69D021
:10502000A2EB030280EA010C49024FEA402037D08C
:105030004FF0805343EA111143EA10130CF0004083
:105040008B4238BF5B0042F17D024FF4000C8B4273
:1050500024BF5B1A40EA0C00B3EB510F24BFA3EB53
:10506000510340EA5C00B3EB910F24BFA3EB910323
:1050700040EA9C00B3EBD10F24BFA3EBD10340EA7D
:10508000DC001B0118BF5FEA1C1CE0D1FD2A3FF6C3
:1050900050AF8B4240EBC25008BF20F00100704778
:1050A0000CF0004C4CEA50207F32C2BFD2F1FF031B
:1050B00040EAC250704740F400004FF00003013A4C
:1050C00037E792F0000F00F0004C02BF400010F4F0
:1050D000000F013AF9D040EA0C0093F0000F01F004
:1050E000004C02BF490011F4000F013BF9D041EA26
:1050F0000C0195E70CEAD15392EA0C0F08D1420259
:105100007FF47DAF93EA0C0F7FF470AF084676E72B
:1051100093EA0C0F04D14B023FF44CAF08466EE704
:1051200030F0004C18BF31F0004CCAD130F00042D2
:105130007FF45CAF31F000437FF43CAF5FE700BF2A
:105140004FEA4002B2F1FE4F0FD34FF09E03B3EB94
:1051500012620DD94FEA002343F0004310F0004FD4
:1051600023FA02F018BF404270474FF0000070472A
:1051700012F1610F01D1420205D110F0004008BFC9
:105180006FF0004070474FF000007047054B10B5BE
:105190000360036904461BB10830014603229847A7
:1051A000204610BDB886000010B50446FFF7EEFF9C
:1051B0002046FCF757FE204610BD002101764176BF
:1051C00014221A30FCF7CEBD10B5054B0360002346
:1051D000044641600361FFF7F0FF204610BD00BFA9
:1051E000B88600000022027070472DE9F0410646A3
:1051F000FCF764FF002407463278E3B29A4210D9E4
:1052000006EB031303F10805D9689A68791AB1EB24
:10521000020804D45B6898476F60C5F808800134C1
:10522000EAE7BDE8F081FFFF70B504460D46084689
:105230000949FCF7F4FB002322785E1CDBB29A429A
:1052400009D904EB031328465A6804499B68FCF704
:10525000E6FB3346F0E770BDC0860000CC86000058
:10526000044BD878044B1A68C0B2904218BF18603B
:10527000704700BF00600640D089FF1F08B5FFF7E8
:10528000EFFF8307FBD5024B0222DA7008BD00BF97
:1052900000600640094B1B7813B9094B1B782BB1F2
:1052A000084A1378202B03D901230371002070478B
:1052B000581C1070044A0120D1547047E28EFF1F21
:1052C000A58EFF1FE38EFF1F848EFF1F7047FFFF19
:1052D000024B1878024B1B78C01A7047E18EFF1FF3
:1052E000E08EFF1F064A074913780978994204D9CE
:1052F000591C1170044AD05C70474FF0FF30704762
:10530000E08EFF1FE18EFF1FA68EFF1F054B064A92
:105310001B7812789A4286BF044AD05C4FF0FF3067
:10532000704700BFE08EFF1FE18EFF1FA68EFF1F9C
:1053300070B50E4B1B78144613B90D4B1B7893B107
:105340000C4A1578C5F121039C42164602D9012268
:1053500002711C460848224628442544FCF768FC94
:105360003570204670BD184670BD00BFE28EFF1F2D
:10537000A58EFF1FE38EFF1F848EFF1F10B5114BFC
:10538000DB7803F0200303F0FF045BB91220FCF785
:10539000B7FD0D4B1B68A3B10C4A14700C4A107872
:1053A000984710BD0B4A13780133DBB2012B137001
:1053B00002D8094B1B7823B91220BDE81040FCF736
:1053C0009FBD10BD00600640808EFF1FE08EFF1F56
:1053D000E18EFF1FCC8EFF1FA58EFF1F00220271E2
:1053E0004FF47A710273024A81600260704700BF15
:1053F000E8860000094B1B685B060DD5084B9942F7
:10540000084B01D8282204E0074A914294BF192290
:105410000A225A7003229A71704700BF34800440F8
:105420007F1A0600006006403F420F00174A08B589
:1054300000231370164A116841F040011160154AAB
:105440009370154B1B78122B03D14FF41972134B29
:1054500004E0112B03D1124B4FF419721A60114B57
:105460001B78132B03D14FF419720F4B04E0102B50
:1054700003D10E4B4FF419721A600D49FFF7BAFFB2
:10548000044B20225A7180229A7008BDA58EFF1FFE
:105490003480044000600640CC89FF1F0CA004400B
:1054A00004A00440D489FF1F08A0044000A00440C9
:1054B000A086010010B53649CB78DBB213F0100F8F
:1054C00003F0400201D12AB92CE01020C870002A54
:1054D000F9D110BD03F0040303F0FF012D4AC3B15D
:1054E000002313702C4A13702C4B1B68144603B115
:1054F000984723782A4A1BB927491370012008705E
:10550000234BD021997012781A71264B01221A7000
:1055100039E001231370244B19701D4BC0229A707F
:105520001B7930E01A4CA27802F0100202F0FF0161
:10553000AAB113F001030ED11A4917480A7800786E
:10554000904203D9531C0B70154B9B5C2371104B7D
:10555000D0229A7017E0C023A370237913E0134B75
:105560000322197012201249FCF758FD0E4A2179C6
:1055700013781F2BC9B206D80648007818B1581CFA
:1055800010700C4AD154024B0222DA7010BD00BFD9
:10559000006006407D8EFF1FE38EFF1FC88EFF1F39
:1055A000848EFF1FE48EFF1FE18EFF1FCC8EFF1F36
:1055B0007D530000A68EFF1F044B054A4900197059
:1055C00001231370034A1370704700BF848EFF1FBE
:1055D000E28EFF1FE38EFF1FF7B52D4B1222DA700C
:1055E0009A7892060F4601D5B4221CE0294B1A681E
:1055F0000092009C1D46FFF733FE00F0200000F0F3
:10560000FF0360B12B680193019B1B1B0F2BF2D989
:105610001F4B00229A7080229A70042036E01E4AA6
:1056200013701B4BB0229A70FFF71AFE8306FBD54E
:1056300000251A4B1B78ECB2A3421FD9184B1A5DF8
:10564000134B1A71FFF70CFE860701D48006F9D4BC
:105650000F4E0223F370FFF703FEC10601D482064A
:1056600003D48023B370042009E0C30705F10105CA
:10567000DFD5002C0CBF0220032001E0002017B171
:10568000034B80229A70074B00221A7003B0F0BDC2
:1056900000600640BC8BFF1FA58EFF1FE38EFF1F1F
:1056A000848EFF1FE28EFF1F2DE9F0411546364A1A
:1056B0001F4600231370354A1370354B0C461221D8
:1056C000D970997811F0200F904601D0B4220BE0E8
:1056D000FFF7C6FD00F0200000F0FF020028F7D120
:1056E0002C4B1A702A4BB022640044F00104284E5F
:1056F0009A70E4B23471FFF7C1FDFFF7B1FD10F00D
:10570000110004D08023B3700020BDE8F08135B9CA
:10571000002F0CBFA0238023B370BDE8F081012DC2
:105720000CBFA823A023B37033790024012D184E99
:1057300012D0013DFFF7A2FDEDB2012D04BFA82359
:10574000B3701F2C06D8124A1179134A631C1155E5
:10575000DCB2EBE73379E9E7FFF790FDB0231F2CCC
:105760002546B37005D80C4B32795A550134E4B252
:1057700000E0337917B1064B80229A7088F8004018
:105780002046BDE8F08100BFE08EFF1FE18EFF1FC5
:1057900000600640A58EFF1FA68EFF1F0123FFF7A6
:1057A00083BF0121FFF718BF0148FFF717BE00BFF5
:1057B000D08EFF1FF8B507460C460D4839461546F2
:1057C0001E46FFF7F9FE21460948FFF763FD002456
:1057D000E3B2AB42064804D2315DFFF75BFD013412
:1057E000F6E7FFF7DEFFD0F1010038BF0020F8BD7B
:1057F000D08EFF1F07B502AB03F8012D0122FFF782
:10580000D9FF03B05DF804FBF8B507460C46124813
:10581000394616461D46FFF7CFFE21460E48FFF7D4
:1058200039FD77000024BC420EDA26B20A4835F86A
:105830001610090AFFF72EFD0234074815F8161056
:10584000FFF728FDE4B2EEE70348FFF7AAFFD0F127
:10585000010038BF0020F8BDD08EFF1F07B502AB96
:1058600023F8022D0122FFF7CFFF03B05DF804FB00
:105870002DE9F04F154687B02E4A01931368039324
:105880000024BDF84060DDF80C8007468B46A24638
:105890009146AC4225D228483946FFF78DFE59463D
:1058A0002548FFF7F7FC2448FFF77BFF22483946DD
:1058B000FFF782FE2A1B202AA8BF20221E48394655
:1058C000D2B2FFF76BFF1C48FFF702FDE8B116B339
:1058D000D9F800200492049AC8EB0202B2421AD30B
:1058E00013E06EB1D9F800200592059AC8EB0208C2
:1058F000B04505D34FFA8AF2AA42B8BF4FF0FF0A6B
:105900004FFA8AF007B0BDE8F08F202DD4BF64199C
:105910002034E4B2BDE74FFA8AF207480092FFF75D
:10592000E1FC9DE80C0098540AF101035FFA83FA48
:10593000C9E700BFBC8BFF1FD08EFF1F13B51446F5
:10594000009301222346FFF793FF02B010BD37B545
:105950001C461546BDF818300DF10702FFF7EEFFA3
:10596000012303FA05F59DF807301D40257003B0AB
:1059700030BD37B515461C460DF10702BDF81C3089
:10598000FFF7DCFF68B101232A1B03FA04F401329C
:105990009DF80730013C94401C40069B44FA02F2FB
:1059A0001A7003B030BDFFFF2DE9F3411E460E4BC8
:1059B00014461B880DF1070280460F46FFF7BEFF15
:1059C00001229DF80750A24016B12A43D2B201E04D
:1059D00025EA0202404639468DF80720FFF70AFF04
:1059E00002B0BDE8F08100BFD689FF1FF7B51C46A5
:1059F000114B17461B880DF1070206460D46FFF7AF
:105A00009DFFB8B101223B1B02FA04F49DF820204F
:105A10000133013C9C4002FA03F39DF80720DBB2FE
:105A200022EA04021C402243304629468DF8072012
:105A3000FFF7E0FE03B0F0BDD689FF1F68230370B7
:105A400070470A4600781921FFF7D4BE07B5032333
:105A50000078009105221A21FFF7C8FF03B05DF816
:105A600004FB07B503230078009102221A21FFF7F7
:105A7000BDFF03B05DF804FB07B502230078009179
:105A800004221B21FFF7B2FF03B05DF804FB07B54A
:105A900002230078009104221C21FFF7A7FF03B026
:105AA0005DF804FB0A4600781F21FFF7A3BE0A46F3
:105AB00000782021FFF79EBE0A4600782121FFF7DB
:105AC00099BE0A4600782221FFF794BE0A46007864
:105AD0003821FFF78FBEFFFF10B50246044B044686
